:100000000C94E8010C9420020C9420020C94200221
:100010000C9420020C9420020C9420020C942002D8
:100020000C9420020C9420020C94F01C0C94C31D20
:100030000C9455160C9420020C9420020C9420026F
:100040000C9420020C9420020C9420020C942002A8
:100050000C9420020C94DC160C9420020C942002C8
:100060000C9420020C9420020C9420020C94200288
:100070000C9420020C9420020C9420020C94200278
:100080000C9420020C9420020C9420020C94200268
:100090000C9420020C9420020C9420020C94200258
:1000A0000C9420020C9420020C9420023F0040008B
:1000B000410042004300440045004600470048001C
:1000C00021522A00E6004C00E40065005000510077
:1000D0004F0029003A003B003C003D003E00E0009C
:1000E000E300E200000022522C002300240025003F
:1000F000260027002D002E002A0049004B00110089
:100100001000360037003800E50000005200000003
:1001100035001E001F00200021002200E1001D000C
:100120001B000600190005001C0018000C0012003E
:1001300013002F00300031004C004E000B000D006A
:100140000E000F003300340028004A004D002B0041
:1001500014001A00080015001700390004001600EA
:10016000070009000A000000000000000000000075
:10017000000000000100010001000100000001007A
:10018000010001000100000000000000010000006B
:10019000000000000000000001000100010000005C
:1001A000000000000000000000000000000000004F
:1001B0000000010000000000290028004A004D0056
:1001C0000000010000000000000000001E081F08E1
:1001D000200821082208010000000000490149020E
:1001E000000000004B014E01000000004B004E00DB
:1001F0000100000000005000510052004F000000BC
:1002000000000100000000000100000000000000EC
:1002100000000000010000000000000000000000DD
:1002200000000000000000000000000000000000CE
:10023000530000000000010000000000000000006A
:1002400000000000000000000000000000000000AE
:10025000000000000000000000000100000000009D
:100260005F00600061000000560000000000000018
:1002700000000000620000006300000000000000B9
:10028000000000000000000000000000000000006E
:1002900000000000000000000000000000005C0002
:1002A0005D005E0000000000000000000000000093
:1002B000000059005A005B00000000000000000030
:1002C000000000000000000000000000000000002E
:1002D00000000000000000000000120373006C002A
:1002E0006100730068005F007600310000001003B9
:1002F0006E0069006B006900740061006C00000012
:100300000403090409023B00020100A0FA090400E9
:10031000000103010100092111010001224400072D
:100320000581030800010904010001030000000920
:100330002111010001223B00070582032000011268
:10034000010002000000086A0490B00001010200F0
:100350000105010906A1018506050719E029E71530
:100360000025019508750181020507190029EF157F
:1003700000250195F07501810205081901290595EF
:100380000575019102950175039101C005010906EA
:10039000A101050719E029E7150025019508750158
:1003A00081029501750881010507190029FF1500D3
:1003B00026FF009506750881000508190129051515
:1003C000002501950575019102950175039101C004
:1003D00011241FBECFEFDAE0DEBFCDBF04B603FEAF
:1003E00018C08091390290913A02A0913B02B091DD
:1003F0003C028730904BA740B04B59F41092390221
:1004000010923A0210923B0210923C02E0E0F8E3B4
:10041000099511E0A0E0B1E0EEEBF0E402C0059038
:100420000D92A031B107D9F722E0A0E1B1E001C0FF
:100430001D92A933B207E1F70E9427130C942A20DA
:100440000C940000A1E0B0E0E8E2F2E00C94991F07
:1004500069830FEF1FEF21E030E0AE014F5F5F4F88
:10046000682F80E40E9404182196E4E00C94B51FE4
:10047000A1E0B0E0EEE3F2E00C94911F7C01C3B088
:10048000A6B099B0BFB019820FEF1FEF21E030E0A6
:10049000AE014F5F5F4F62E180E40E945618D98041
:1004A000198221E030E0AE014F5F5F4F63E180E4ED
:1004B0000E9456183981442792FE439593FA882763
:1004C00080F921E08227082E000C990BAA0BBB0BA8
:1004D000880F991FAA1FBB1F842B95FA442740F948
:1004E0004227042E000C550B660B770BE2E0440FFD
:1004F000551F661F771FEA95D1F7842B952BA62BE6
:10050000B72B94FA442740F94227042E000C550BD0
:10051000660B770BF3E0440F551F661F771FFA95A4
:10052000D1F7842B952BA62BB72B96FA442740F9AD
:100530004227042E000C550B660B770BE4E0440FAA
:10054000551F661F771FEA95D1F7842B952BA62B95
:10055000B72B97FA442740F9422750E060E070E05B
:10056000F5E0440F551F661F771FFA95D1F7842BCE
:10057000952BA62BB72BC4FA442740F94227042E0B
:10058000000C550B660B770BE6E0440F551F661FFA
:10059000771FEA95D1F7842B952BA62BB72BC5FA9D
:1005A000442740F94227042E000C550B660B770BAD
:1005B000F7E0440F551F661F771FFA95D1F7842B7C
:1005C000952BA62BB72BC6FA442740F94227942B2C
:1005D000A6FA442740F94227042E000C550B660B5F
:1005E000770BE9E0440F551F661F771FEA95D1F797
:1005F000842B952BA62BB72BB7FA442740F942271B
:1006000050E060E070E0FAE0440F551F661F771F6E
:10061000FA95D1F7842B952BA62BB72BB6FA442746
:1006200040F94227042E000C550B660B770BEBE0CC
:10063000440F551F661F771FEA95D1F7842B952B22
:10064000A62BB72BB5FA442740F94227042E000CFD
:10065000550B660B770BFCE0440F551F661F771F89
:10066000FA95D1F7842B952BA62BB72BB4FA4427F8
:1006700040F94227042E000C550B660B770BEDE07A
:10068000440F551F661F771FEA95D1F7842B952BD2
:10069000A62BB72BB1FA442740F94227042E000CB1
:1006A000550B660B770BFEE0440F551F661F771F37
:1006B000FA95D1F7842B952BA62BB72B4B2D409574
:1006C000417050E060E070E0EFE0440F551F661F9E
:1006D000771FEA95D1F7842B952BA62BB72BC1FA60
:1006E000442740F94227A42BC2FA442740F9422765
:1006F000042E000C550B660B770BF1E1440F551FD0
:10070000661F771FFA95D1F7842B952BA62BB72B55
:10071000C3FA442740F94227042E000C550B660B00
:10072000770BE2E1440F551F661F771FEA95D1F75B
:10073000842B952BA62BB72BEE2733FFE39534FBA9
:10074000442740F94227042E000C550B660B770B0B
:10075000440F551F661F771F4E2B35FB882480F8EA
:100760008226082C000C9908AA08BB08E2E0880C35
:10077000991CAA1CBB1CEA95D1F7482959296A295A
:100780007B2936FB882480F88226082C000C9908E7
:10079000AA08BB08F3E0880C991CAA1CBB1CFA959C
:1007A000D1F7482959296A297B29D7FA882480F862
:1007B0008226912CA12CB12C34E0880C991CAA1C07
:1007C000BB1C3A95D1F7482959296A297B293D2D27
:1007D00030953170832E912CA12CB12CE5E0880C42
:1007E000991CAA1CBB1CEA95D1F7482959296A29EA
:1007F0007B29D6FA882480F88226082C000C9908D8
:10080000AA08BB08F6E0880C991CAA1CBB1CFA9528
:10081000D1F7482959296A297B29D5FA882480F8F3
:100820008226082C000C9908AA08BB0837E0880C1F
:10083000991CAA1CBB1C3A95D1F7482959296A2949
:100840007B29D4FA332730F93227532BD3FA882463
:1008500080F88226082C000C9908AA08BB08E9E059
:10086000880C991CAA1CBB1CEA95D1F74829592968
:100870006A297B29D2FA882480F88226082C000C69
:100880009908AA08BB08FAE0880C991CAA1CBB1C92
:10089000FA95D1F7482959296A297B29D1FA882460
:1008A00080F88226082C000C9908AA08BB083BE0B7
:1008B000880C991CAA1CBB1C3A95D1F748295929C8
:1008C0006A297B29E3E1440F551F661F771FEA95CC
:1008D000D1F7842B952BA62BB72BF70140815181A3
:1008E00062817381481759076A077B0709F420E082
:1008F000F70180839183A283B383822F2196ECE05A
:100900000C94AD1FA5E1B0E0E8E8F4E00C94991F69
:10091000279A2F9A0E9484171D8A0FEF1FEF21E05C
:1009200030E0AE014B5E5F4F6AE080E40E94041845
:100930008FEF9FEF9C878B87FE013D9688E0DF015C
:100940001D928A95E9F72AE030E0AE01455F5F4FDE
:1009500060E080E40E940418AE014F5F5F4F8AE0C0
:10096000FA0111928A95E9F72AE030E06CE080E420
:100970000E9404186596E4E00C94B51F84B1817858
:1009800084B985B18E6785B93E98469A8AB18370DD
:100990008AB98BB18C6F8BB980B310BA81B38FEFEA
:1009A00081BB209828983F9847986E9876986FEF6B
:1009B0008CE00E94220268E78DE00E94220267E03C
:1009C00085E10E9422026FEF80E00E94220268E728
:1009D00081E00E94220208950F931F93CF938C0110
:1009E0006E9A66E085E10E9422028FE99FE00197FE
:1009F000F1F700C00000C8010E943802C82F6E98AD
:100A0000EFE9FFE03197F1F700C000003F9A65E0A1
:100A100085E10E9422028FE99FE00197F1F700C073
:100A20000000C80104960E943802C82B3F98EFE9E5
:100A3000FFE03197F1F700C00000209A63E085E104
:100A40000E9422028FE99FE00197F1F700C00000A9
:100A5000C80108960E9438022098EFE9FFE031971C
:100A6000F1F700C000008C2BCF911F910F910895DA
:100A70008330B8F46330A8F44F3198F4E42FF0E0F9
:100A80009FE1699FE00DF11D11249DE5899FE00D17
:100A9000F11D1124EE0FFF1FE455FF4F8591949136
:100AA000089581E090E008950E943805089581E05E
:100AB00008950E945705089581E0089581E0089502
:100AC0000E945E05089508950E9463050895A6E0BA
:100AD000B0E0EDE6F5E00C949A1F49835A839E83BB
:100AE0003091170189819A8131111AC03E813115E7
:100AF00099F0211589F00E949E0A182F682F89818C
:100B00009A810E947A0A69817A81812F0E94A111BB
:100B10002696E3E00C94B61F0E948C0A182FF3CFA0
:100B20000E949E0A69817A81F1CFFC01262F4081C3
:100B3000518162817381848195810E946705089546
:100B4000CF93DF93D82FC92F61E00E9495056D2FB9
:100B50007C2F0E945905DF91CF910895CF93DF93A9
:100B6000D82FC92F60E00E9495056D2F7C2F0E9421
:100B70006405DF91CF91089581E008950E94BC053E
:100B80000895CF93C82F0E9446098C2F0E94BE055E
:100B90002FEF84E39CE0215080409040E1F700C0BB
:100BA0000000CF91089581E00E94C1050E940017C6
:100BB000089580E00E94C1050E94241708950F93B4
:100BC0001F93CF93DF938C0161E00E949505EC01A8
:100BD000B8010E9460058115B1F1B801CE010E94F3
:100BE000AB14811581F1B801CE010E946C138115FF
:100BF00051F1B801CE010E944113811521F1F80194
:100C00008581811581F0CA35FCE7DF0739F178F479
:100C1000C130ECE7DE07F9F0C330FCE7DF07C9F0CD
:100C2000C115DC4771F0C8010E945C050DC0CB35D1
:100C3000ECE7DE07B1F0CC35DC47A9F70E94CD0E1A
:100C4000F2CF0E94D30580E0DF91CF911F910F91E9
:100C500008950E94DE0E0E94D905F5CF0E94D60E9F
:100C6000E2CF0E94DA0EDFCF0E942F160E945406B8
:100C700008950E9458060E943416089581E0089550
:100C80000895CF93DF93D82F0E943E06C82F811579
:100C900019F08D2F0E9440068C2FDF91CF9108957F
:100CA00008950E944106089580E00E94510608952B
:100CB0000E94F2140E9451060895CF930E94F214EC
:100CC000C82F809112018C1779F0C09312010E94F5
:100CD000C1166093130170931401809315019093D2
:100CE00016018C2F0E945106CF910895ADE0B0E01F
:100CF000ECE7F6E00C949B1F488759876A877B874F
:100D00008C879D8791110E94D90D1F8286E0FE017C
:100D10003896DE01119601900D928A95E1F78D814A
:100D200081110DC029813A814B815C816D817E8169
:100D30008F810E94230D2D96E2E00C94B71FCE0107
:100D400001960E94A0058111EDCFF5CFFC018481B1
:100D5000813021F4808191810E94D00A0895CF933F
:100D6000C82F811599F08CEF8C0F813A88F48C2F65
:100D70000E943B15811529F08C2F0E94E0150E94DE
:100D80006F0E8C2F0E94C9150E946F0ECF9108958F
:100D900080E28C0F8830D0F7C77081E001C0880FE7
:100DA000CA95EAF70E94BA0DEFCF811541F09CEF8A
:100DB000980F913A28F40E94E0150E946F0E089552
:100DC00090E2980F9830D8F7877091E001C0990FA2
:100DD0008A95EAF7892F0E94C00DEFCF0F931F93DA
:100DE000CF93C82F8B010E94AF060115110539F46E
:100DF0008C2F0E94D506CF911F910F9108958FE9F6
:100E00009FE00197F1F700C0000001501109EDCFFC
:100E100060E570E0893311F060E070E00E94EE065A
:100E20000895811521F00E94BA0D0E946F0E089559
:100E3000811521F00E94C00D0E946F0E0895A0E060
:100E4000B0E0E5E2F7E00C94951F6C01D62FC72FB8
:100E5000FC011581068102950F700E94AF0DE82EEE
:100E60008115F9F0E12E1115E1F08C2F807F80348F
:100E700061F080E28D0F8830D0F18C2F807E80323F
:100E800021F4D230A0F1011591F180910F0282FF7F
:100E90002EC082E00E94A00E0E94AF0D91E0E82ECD
:100EA000E9269C2F92959F70983009F4C9C008F5E7
:100EB000923080F1925F9F70923008F45CC0E11430
:100EC00089F00E94AB0D80FD0DC0F60115820E94D5
:100ED000A50D0E94D809C6010E9419090E94A50DFE
:100EE0000E94E809CDB7DEB7E8E00C94B11FE12C11
:100EF000D8CF993009F41BC19A5F9F709230F8F6F1
:100F0000D23F09F025C18C2F8F7111111EC10E9493
:100F1000D809C5C00C2F0F70C03110F00295007FAA
:100F2000111599F0011559F080E28D0F883010F0FD
:100F3000D11107C0802F0E94BA0D0E946F0E8D2F15
:100F40003BC0802F0E94CB0DF8CF8D2F0E94D5067D
:100F5000011509F4B4CF80E28D0F883010F0D11163
:100F600004C0802F0E94C00D03C0802F0E94D10DAD
:100F70000E946F0EA4CFFC2FFF70FF2EC07FC032E7
:100F800019F0F29480EFF822D11541F0D130D1F16F
:100F9000111509F444C00115F1F0D1CF80910F0271
:100FA00082FD15C0111559F0F11429F08F2D0E9402
:100FB000BA0D0E946F0E80E00E94AF0680CF80E0E5
:100FC0000E94D506F11409F47ACF8F2DCBCF1115DD
:100FD00069F0011104C08F2D0E94110770CF0130FC
:100FE00009F06DCF8F2D0E94F10D69CF011167CFF0
:100FF0008F2D0E9418078F2D0E94FD0D8F2D0E94AE
:10100000E00D5DCF111521F0063008F058CFE3CF89
:10101000053008F054CF8F2D0E94180750CF0115CE
:10102000D1F3D93349F42FEF87EE93E0215080407C
:101030009040E1F700C000008D2F0E94D5063FCF01
:101040008C2F8370811139C0111129C04D2F429509
:1010500046954770440F440F2D2F2F7030E0042E1B
:1010600002C0220F331F0A94E2F780E090E0D4FF21
:1010700009C08FE090E002C0880F991F4A95E2F7FF
:1010800080959095C695C695C370822B932BC230E0
:1010900071F0C33079F0C13039F00E94A8090E9484
:1010A000F2140E9451060BCF0E949F09F8CF0E94B4
:1010B000B109F5CF0E949C09F2CF111561F1C0FF73
:1010C000EECF4D2F429546954770440F440F2D2F7C
:1010D0002F7030E0042E02C0220F331F0A94E2F773
:1010E00080E090E0D4FF09C08FE090E002C0880F5C
:1010F000991F4A95E2F780959095C695C695C3705D
:10110000822B932BC23069F0C33071F0C13031F0C3
:101110000E94130AC4CF823010F2D3CF0E940A0A71
:10112000BECF0E941C0ABBCF0E94C009B8CFCF70AF
:10113000111539F08C2F0E94D8098D2F0E941107AC
:10114000AECF8D2F0E9418078C2F0E94E809A7CFE1
:1011500060F4D03FB9F0D13F81F01115F1F10115E4
:10116000C9F18D2F0E94AF069ACFD33FB9F0D43F7B
:10117000A1F780910F0282FD1BC08C2F8F7111157A
:1011800021F3C5CE111541F0053008F088CF8C2F22
:101190008F710E94FA0983CF0630F7CF111529F01D
:1011A0008C2F8F710E94CC097ACF0E94C70977CF0C
:1011B000111531F063E08C2F8F710E94810E6FCF7B
:1011C00081E00E94A00E023008F469CF82E00E9404
:1011D000A00E65CF8C2F8F719ACE011579F0D9337F
:1011E00049F4EFEFF7EE23E0E150F0402040E1F763
:1011F00000C000008D2F0E94D50651CF8C2F8F711B
:10120000A4CF0F931F93CF93DF93EC016881798173
:101210008D810E94DD0A8C010E94250A0E949B0993
:10122000B801CE010E941F07DF91CF911F910F914E
:101230000895CF93DF93EC018C81811599F0CE0155
:101240000E94DF05811111C00E94AF0D811551F080
:101250008D81811539F080910F0282FF03C082E0F9
:101260000E94A00EDF91CF910895CE010E94010946
:10127000CE010E94AE05F6CF0E94D90D0E946F0EDE
:1012800008950E94F7150E943C0908950E94C80D18
:101290000E9441090895282F92959F70963099F0E9
:1012A00060F4925F9F70923030F4203FB1F038F4D8
:1012B00081E0283E38F080E008959A5FF3CF81E026
:1012C000243FC9F7089591E0813F09F090E081E063
:1012D000283E08F080E0892B089581E00895FC0104
:1012E0008481811539F0808191810E94D00A0E9409
:1012F0004B09089580E00895A6E0B0E0E2E8F9E047
:101300000C949B1F2696E2E00C94B71FA7E0B0E078
:10131000ECE8F9E00C949B1F2796E2E00C94B71FD1
:1013200008950E94900908950E94910990934B019D
:1013300080934A01089508950E9494090895209188
:101340004A0130914B01822B932B0E9494090895FE
:1013500020914A0130914B01822393230E949409EA
:10136000089520914A0130914B01822793270E94D2
:10137000940908950E94900908950E94BA09089559
:101380000E94BD099093490180934801089580E02F
:1013900090E00E94C009089521E030E0A90102C058
:1013A000440F551F8A95E2F7CA010E94C0090895AB
:1013B00021E030E002C0220F331F8A95E2F78091CE
:1013C000480190914901822B932B0E94C0090895F6
:1013D00021E030E002C0220F331F8A95E2F720950A
:1013E00030958091480190914901822393230E9476
:1013F000C009089521E030E002C0220F331F8A9512
:10140000E2F78091480190914901822793270E9439
:10141000C00908952091480130914901822B932BF6
:101420000E94C0090895209148013091490182230A
:1014300093230E94C00908952091480130914901E9
:10144000822793270E94C009089508959B01677021
:1014500091E001C0990F6A95EAF763E03695279508
:101460006A95E1F7220F331F220F331FFA01E20FB3
:10147000F31F40E050E0682F70E08191DF019B0195
:10148000042E02C0369527950A94E2F72170219523
:101490002827292328272E934F5F5F4F443051057B
:1014A00061F708959C01982F977083E036952795F2
:1014B0008A95E1F7220F331F220F331FFB01E20F42
:1014C000F31F40E050E080E0219130E0092E02C09F
:1014D000369527950A94E2F721703327042E01C030
:1014E000220F0A94EAF7822B4F5F5F4F4430510579
:1014F00059F70895282F862F933068F42F3158F428
:10150000622F70E02FE1929F600D711D112448E160
:1015100051E00E94260A0895292F933068F48F31F4
:1015200058F490E068E171E03FE1239F800D911D48
:1015300011240E94520A089580E00895A0E0B0E0CE
:10154000E4EAFAE00C94941F8C01E0904801F090DA
:10155000490180914A0190914B01E82AF92ACFE094
:10156000D0E0CC24C394D12CC6010C2E02C0880F2D
:10157000991F0A94E2F78E219F21892B49F4219724
:1015800098F7B12C8B2DCDB7DEB7E9E00C94B01FE6
:10159000BC2EB8018C2F0E94AD11019781F3F2CFC0
:1015A000CF93DF93D82FC92F0E949E0A6D2F7C2FD7
:1015B0000E94AD11DF91CF9108951F93CF93DF93D8
:1015C000162FD72F90911701911541F0862F972F45
:1015D0000E94D00ADF91CF911F910895811581F06B
:1015E000862F972F0E949E0AC82F682F812F9D2F2C
:1015F0000E947A0A612F7D2F8C2F0E94AD11EACFB5
:10160000862F972F0E948C0AC82FF4CF0F931F9319
:10161000CF93E0914C01C7E080914D018E1304C03F
:10162000CF911F910F9108950E2F10E0CE9FF001E2
:101630001124E25BFE4F208131814281538164811C
:10164000758186810E948609F8013196E770E4CFA2
:101650002091860130918701409188015091890144
:1016600060918A0170918B0180918C010E948609A2
:10167000089580918C01803178F480918B018115DF
:1016800059F0E0914C0120914D013091870140913A
:10169000860157E02E1301C008956E2F70E05E9F03
:1016A000F0011124DF01A25BBE4F14968C911497B8
:1016B000811561F111968C911197831327C08C913C
:1016C000841324C015968C91159781111FC0129612
:1016D0008D919C91A0918801B09189018A1B9B0BEF
:1016E000883C910598F480918C018F708061809383
:1016F0008C01EC5AFE4F80818F708061808386E878
:1017000091E00E9419090E94060B0895FB01319691
:10171000E770C0CFE0914C0190914D0127E0E913B3
:1017200002C080E00895AE2FB0E02E9FF00111249A
:10173000E25BFE4F3181361306C03081381303C09F
:101740003581341304C0FD013196E770E8CF81E0A4
:1017500008958F929F92AF92BF92DF92EF92FF9285
:101760000F931F93CF93DF93CDB7DEB72D970FB6AF
:10177000F894DEBF0FBECDBF8C0186E0F801DE011C
:10178000189601900D928A95E1F7F801F580848111
:1017900096E8892E91E0992E90918A0191111BC0B3
:1017A000811509F4FFC0F11409F440C1C8010E9479
:1017B0006F09811509F43AC187E0F801D40101905D
:1017C0000D928A95E1F7C4010E94A6060E94390B8A
:1017D0000E94280BE7C0E080A280B380D0908B01EC
:1017E0002091880130918901A501421B530BD1142E
:1017F00009F4DBC0483C510508F0A6C0811509F486
:10180000D1C090918701918080918C01803108F046
:101810006BC0991228C0909186019E1124C0F110CE
:101820005DC08F70806180938C010E94280B86E8D8
:1018300091E00E94190980918C01F8018683F12CB6
:101840008F2D2D960FB6F894DEBF0FBECDBFDF9162
:10185000CF911F910F91FF90EF90DF90BF90AF90CD
:101860009F908F900895F11039C040E0692D8E2D22
:101870000E948A0B40E0692D8E2D0E948A0BF82E63
:101880008111DDCF888599850E94D00A292F229564
:101890002F70903450F49F70223080F0911599F0A1
:1018A000F8019681903178F4CBCF2A5F2F702230E7
:1018B00078F0C8010E941909FD2CC2CF911519F0CA
:1018C000811509F4BDCF805E883008F4B9CFF1CF1F
:1018D000803F08F4B5CF815F8330F7CF80918C01D2
:1018E000816080938C01ABCF991207C090918601E3
:1018F0009E1103C0F11409F479C0C8010E946F0958
:10190000811509F493C0F11409F490C080918C0101
:10191000803288F020918601309187013A832983B3
:10192000BC82AB8290918A019D831E828F83CE01FF
:1019300001960E94190987E0F801A6E8B1E001903C
:101940000D928A95E1F742CF90918C019031A0F4ED
:10195000488559856A857B858C859D850E947C0993
:1019600086E891E00E94190987E0F40111928A95B6
:10197000E9F70E94280B63CF8115A1F02091870120
:1019800081812813BACF809186018E11B6CFF110D4
:10199000B4CF9683C8010E94190987E0F40111921F
:1019A0008A95E9F7FF24F3944BCF483C510508F0A2
:1019B00041C08115B9F3F114C9F19091870181817A
:1019C00098132AC0809186018E1126C080918C01C7
:1019D00080FD19C08031B8F08683807F803F39F068
:1019E0008681982F907F905F8F70892B8683C801A6
:1019F0000E94190987E0F801A6E8B1E001900D9274
:101A00008A95E1F7E5CE87E0F801A6E8B1E001901C
:101A10000D928A95E1F7C6CFC8010E946F09811126
:101A20008ACF80918C01816080938C01C8010E94D3
:101A30001909B8CF488559856A857B858C859D8530
:101A40000E947C0991CFAEE0B0E0E9E2FDE00C94A9
:101A50009A1F288739874A875B876C877D878E879F
:101A6000CE0108960E94A90B6C858115A9F061151D
:101A700041F0288539854A855B857D858E850E9464
:101A8000860917E080914C0190914D0189133AC06D
:101A90002E96E3E00C94B61F87E0FE013896DE0137
:101AA000119601900D928A95E1F7611551F3A0917D
:101AB0004D018A2F90E001968770992720914C0163
:101AC0002817190689F097E09A9FD0011124A25B8C
:101AD000BE4FFE01319601900D929A95E1F78093E9
:101AE0004D010E94060BCDCF0E94460910924D0178
:101AF00010924C0187E0E6E8F1E0DF011D928A9543
:101B0000E9F7BFCF189FC0011124825B9E4F0E944E
:101B1000A90B811509F4BCCFE0914C011E9FF00187
:101B20001124E25BFE4F2081318142815381648127
:101B3000758186810E94860980914C0190E0019612
:101B40008770992780934C019DCF8091B501869530
:101B50008695869508958091B50187700895909136
:101B6000B501977081E0911101C080E008958091E6
:101B7000E10108959091E101982B9093E10108957E
:101B8000982F90958091E10189238093E101089538
:101B90001092E10108959091E001982B9093E0015B
:101BA0000895982F90958091E00189238093E0011A
:101BB00008951092E001089508950E94DC0D0895A3
:101BC0009091B601292F2823211531F08095892382
:101BD0008093B6010E94DD0D089508950E94ED0DD9
:101BE00008959091B701292F2823281729F0982BC1
:101BF0009093B7010E94EE0D08959091B701292F9F
:101C00002823211531F0809589238093B7010E9404
:101C1000EE0D08958091B701811529F01092B7015A
:101C200080E00E94EE0D0895CF93C091E101809174
:101C3000E001C82B8091B701811531F0C82B0E94BB
:101C4000191581110E940A0E8C2FCF910895CF9300
:101C5000DF93C0910201D09103010E94140E88838A
:101C6000C0910201D091030148E050E06DEA71E0BB
:101C7000CE010E94C21F892B59F088E0FE01ADEA17
:101C8000B1E001900D928A95E1F7CE010E94FF1418
:101C9000DF91CF910895CF93DF93C0910001D09150
:101CA00001010E94140E8983C0910001D0910101AD
:101CB00040E250E06DE871E0CE010E94C21F892B26
:101CC00059F080E2FE01ADE8B1E001900D928A95F5
:101CD000E1F7CE010E940A15DF91CF91089580911E
:101CE0000E01811539F080910E0287FF03C00E941A
:101CF0004B0E08950E94270E089508950E947D0EB0
:101D00000895962F20910F0222FF11C0682F660FB1
:101D1000660F660F692B6093B5010E94D809809108
:101D2000B5018695869586950E947E0E08950E943F
:101D3000D80908951092B50180E00E947E0E0895A2
:101D40009091B501809589238093B501282F277044
:101D500021110DC0891759F090910F0292FF07C011
:101D60008695869586950E94E8090E949A0E0895A8
:101D700090910F0292FB222720F9281769F080FB2F
:101D800092F990930F0280910E0290910F020E949F
:101D9000FF0E82E00E94A00E089580910F020024A1
:101DA00082FF0394802D0E94B80E089581E00E9466
:101DB000B80E089580E00E94B80E08956FEF7FEF8F
:101DC00080E090E00E941420089580E090E00E945E
:101DD000E01F9C0181E0253E3E4F09F080E0089520
:101DE00082E090E00E94D81F089583E090E00E9476
:101DF000D81F089584E090E00E94E01F0895BC0180
:101E000084E090E00E9414200895AB01BC018FE0B3
:101E100090E00E9408200895AB01BC0183E190E0AE
:101E20000E940820089560E070E0CB010E940C0F32
:101E3000089560E070E0CB010E94050F0E94130F2F
:101E40000895A8E0B0E0E7E2FFE00C949B1F65EE88
:101E50007EEF80E090E00E94142060E082E090E05D
:101E60000E94F61F81E090E090934B0180934A011D
:101E700061E083E090E00E94F61F60E074E184E09E
:101E800090E00E94142060E086E090E00E94F61F3F
:101E900060E087E090E00E94F61F40E050E0BA0169
:101EA00088E090E00E94082060E083E290E00E94D9
:101EB000F61F60E08CE090E00E94F61F60E08DE08D
:101EC00090E00E94F61F19821A821B821C821D82DA
:101ED0001E821F82188648E050E067E170E0CE0164
:101EE00001960E94E61F40E050E0BA018FE190E0C9
:101EF0000E9408200E94190F2896E2E00C94B71F58
:101F00000E94210F0895682F8EE090E00E94F61F36
:101F10000895A6E0B0E0EFE8FFE00C94991F0E945E
:101F2000B5168C018091E2019091E3018017910731
:101F300079F019821A820E94B516BC0149815A8132
:101F400080E090E00E9476061093E3010093E201A6
:101F50002696E4E00C94B51F0E94C1166093F4012C
:101F60007093F5018093F6019093F7016093F0016F
:101F70007093F1018093F2019093F3010895089515
:101F800008950E94C00F089582EA92E10E943C13D6
:101F90000E94BF0F0E948204089581E0089581E0AD
:101FA00008950E94CD0F0895089508950E94D40FBA
:101FB0000E94D50F08950E94E50E811102C00E9473
:101FC000800F0E94F00E8093F8010E94FA0E909309
:101FD0000F0280930E020E94F50E90E00E949C0971
:101FE00080914801909149010E94BD0908950E9485
:101FF000AC160E94B8120E94DB0F0E9450060E948D
:10200000C10F0895AAE0B0E0E8E0F0E10C948C1F65
:102010000E94CF0F811108C00E94890F0E945D06A7
:102020002A96E1E10C94A81F0E94CE1204EE11E062
:1020300018870F83312CAF81B8858D909D90AD901E
:10204000BD90B887AF83832D0E94AC122B013C0159
:102050003394B3E03B1609F46DC084149504A604D0
:10206000B70449F38091F80181FD0E94B7120E94E4
:10207000D10F882EB12C992493948B2D0E94AC12F1
:102080006B017C01F80141905190619071908F013A
:10209000C414D504E604F70409F445C0D701C60109
:1020A00084259525A625B7258F839887A987BA8784
:1020B000A12C412C512C320143948F819885A98504
:1020C000BA8584219521A621B721892B8A2B8B2BB8
:1020D000E9F08114D9F0A982BA820E94B5169C83D6
:1020E0008B839D8221E0D701C60184219521A62101
:1020F000B721892B8A2B8B2B09F420E049815A8147
:102100006B817C818D81922F0E947606A394440C72
:10211000551C661C771C9FE1A912CFCFF801F292E3
:10212000E292D292C292B394A3E0BA12A6CF0E94D6
:10213000AC0F74CF84149504A604B70409F092CFB1
:102140006BCF1F93CF93DF930E94B211EC018115E7
:1021500022E5920708F04EC0811540E5940708F08B
:10216000C7C0883E9105E0F4803E910560F4853A51
:10217000910570F4049738F481E0219709F080E02C
:10218000C82F50E0D52FCE01DF91CF911F91089538
:102190008D5C9109D0654397B0F3C0E0D0E0F3CFF8
:1021A000C11580E4D807E0F4C11590E2D90708F022
:1021B000B5C0CE019A9581159F4178F78D2F0E9469
:1021C0005312182FCE0199270E94B211212F30E00F
:1021D000322F2227E901CC27DF71C82BD92BD3CF8F
:1021E000CE0199270E94B211CC27DF70C82BD92BC2
:1021F000D06AC9CF803842E59407C8F5803652E5E9
:10220000950708F056C0C03482E5D807D0F4C03234
:1022100092E5D90708F046C08C2F8695869520E276
:10222000829FC0011124C37021E030E0A90102C0E7
:10223000440F551FCA95E2F7EA01C82BD92BDD6878
:10224000A2CF8C2F86958695877050E2859FC0011E
:102250001124C37021E030E0A90102C0440F551FD2
:10226000CA95E2F7EA01C82BD92BDC688CCF803CF9
:1022700052E5950758F48F71C03AD24578F590E051
:10228000982F8827EC01C46FD06A7DCF805C92457F
:10229000809708F082CFDC2FCC27CC27DF71C06F6E
:1022A000D06A71CFCF71D0E0DC2FCC27C16FD06A5C
:1022B0006ACF86958695877020E2829FC00111249F
:1022C000C37021E030E0A90102C0440F551FCA9538
:1022D000E2F7EA01C82BD92BDA6855CF0E945312D6
:1022E000C82FD0E0DC2FCC27CC27DF71D0624BCFBA
:1022F0008F710E94531253E0CC0FDD1F5A95E1F706
:10230000CC27DF70282F30E084FF04C050E1859F88
:1023100090011124C22BD32BD06935CF8D2F8F7113
:102320000E945312182FCE0199270E94B211212F1B
:1023300030E0322F222722273F71282B392BE90149
:10234000D5CF462F672F733028F44F3118F40E94F1
:102350005405089580E090E008950E94A1110E9424
:10236000A11008959C01803E910509F448C0D8F45D
:102370008133910509F47DC048F48932910509F44F
:102380006DC08A9709F47CC0C9010895893391050D
:1023900051F18238910539F1C597B1F780910E025C
:1023A00085FFF2CF29C0843E910509F447C048F467
:1023B000823E910599F1833E9105A9F121EE30E02D
:1023C000E3CF863E910509F444C0873E9105E1F6CE
:1023D00080910E0283FD61C090910F0291FF2BC08E
:1023E00024EE30E0D1CF80910E028370811152C073
:1023F00080910F0283FFC8CF29E230E0C5CF8091E2
:102400000E0280FD33C090910F0290FFBDCF23EEEE
:1024100030E084FFB9CF20E030E0B6CF80910E02EB
:1024200082FDF5CFB1CF80910E0282FD30C0909138
:102430000F0290FD2FC084FFA7CFEDCF80910F0238
:1024400081FFA2CF80910E0227EE30E084FDE3CF22
:102450009BCF80910E0283FDF7CF96CF80910E0225
:1024600085FD1EC080910F0283FF8ECF29E330E0EF
:102470008BCF80910E0286FF87CF2AE230E084CF97
:1024800080910E0286FF80CF21E330E07DCF22EEE7
:1024900030E07ACF20EE30E077CF26EE30E074CF18
:1024A00025E330E071CF90910E0292FF10C041E021
:1024B000282F2471243009F040E031E0282F2871C2
:1024C000283009F030E0431711F02CE0822793FF09
:1024D00010C041E0282F2471243109F040E031E0A0
:1024E000282F2871283109F030E0431711F02CE033
:1024F000822730910F0230FF10C051E0282F217148
:10250000213009F050E041E0282F2871283009F0EF
:1025100040E0541711F029E0822731FF10C041E05C
:10252000282F2171213109F040E031E0282F287156
:10253000283109F030E0431711F029E0822794FD9B
:10254000877E089580E0089508950E94A41208955A
:1025500008950E94A812089594E0899FF001112423
:10256000E45EFD4F608171818281938108950895B9
:102570000E94BE048CE0E0E1F2E0DF01982F1D92A2
:102580009A95E9F7ECE1F2E0DF011D928A95E9F70F
:1025900083E00E94E1120E94A5120895CF9380E18A
:1025A00092E00E94EC04282F43E06CE172E080E1AD
:1025B00092E00E94E212C82F0E94A9128C2FCF91A4
:1025C00008950895A0E0B0E0E8EEF2E10C94951FC4
:1025D000D82EE92EF62ED72F042FC22F211579F0F1
:1025E00081E08093FB010E94B5169093FA018093DD
:1025F000F90180E0CDB7DEB7E8E00C94B11FC090E0
:10260000FB01C114B1F38091F9019091FA010E948C
:10261000CD16059770F384E0089F80011124A8016E
:102620006D2D7E2D8F2D9D2F0E94C21F892B41F075
:10263000A8016D2D7E2D8F2D9D2F0E94CF1FCC2D9B
:102640001092FB018C2FD6CF0E94021008950E9499
:102650004E160E942E1A0E94C40F0E94481A0E9411
:10266000F70F0E94551A0E945A1A0E9424130E94C2
:10267000741A0E94D60FF7CF909311018093100126
:102680000895CF93DF93EB0186319C4719F50E94A3
:10269000B70D9D819115A1F08A7A91E0811101C059
:1026A00090E09093FC01811549F085E30E94C915E3
:1026B0000E946F0E80E0DF91CF91089589E2F6CFFE
:1026C0008091FC01811521F085E30E94E015F0CF97
:1026D00089E2FBCF81E0EFCFCF93DF93EC01FB01E9
:1026E0008581811509F4CFC09E0130572332310511
:1026F00008F0AFC00E94FA0E90930F0280930E0272
:10270000FE01E150F047E232F10520F4E45DFF4DB7
:102710000C94851F80910E02816080930E0290C000
:1027200080910F02886080930F028AC080910E0210
:102730008260F3CF80910E028460EFCF80910E0211
:102740008860EBCF80910F028160EDCF80910F0206
:102750008260E9CF80910E028061DFCF80910E020E
:102760008062DBCF80910E028064D7CF0E94460941
:1027700080910E028068D1CF80910E028C60CDCF07
:1027800080910F028360CFCF80910E028E7FC5CFE4
:1027900080910F02877FC7CF80910E028D7FBDCFC2
:1027A00080910E028B7FB9CF80910E02877FB5CFCB
:1027B00080910F028E7FB7CF80910F028D7FB3CFB4
:1027C00080910E028F7EA9CF80910E028F7DA5CFC2
:1027D00080910E028F7BA1CF0E94460980910E024C
:1027E0008F779BCF80910E02837F97CF80910F02CE
:1027F0008C7F99CF80910E02992782FF939590FB51
:1028000082F990FB83F989CF80910F02982F9095E0
:1028100090FB80F990FB81F986CF90910E02892F71
:102820008F7B96FF806479CF0E94460990910E02BB
:10283000892F97FB87F9805870CF81E00E94830F22
:1028400080910E0290910F020E94FF0E0E94460995
:1028500080E0DF91CF91089580E0F0CF90910E025B
:10286000892F8F7E94FF806158CF90910E02892F1F
:102870008E7F90FF816051CF90910F02892F877FCB
:1028800093FF886050CF81E0E4CF0F931F93CF93E5
:10289000DF93C42FD22FFC0185818115C9F04093AD
:1028A000FF010E94B5169093FE018093FD0180E226
:1028B0008C0F883040F4C77081E001C0880FCA9542
:1028C000EAF70E941107DF91CF911F910F910895B0
:1028D0001091FF01141333C08091FD019091FE010E
:1028E0000E94CD16883C910550F5C0E2CD0F1D1712
:1028F000C1F080E2810F883040F4177081E001C0A0
:10290000880F1A95EAF70E941807C83050F491E032
:102910008D2F877001C0990F8A95EAF7892F0E9441
:102920001107802F0E940807C83068F6D77081E031
:1029300001C0880FDA95EAF70E941807C4CF80E239
:102940008C0F883008F0BFCFC77081E001C0880FBE
:10295000CA95EAF7F1CF0F93DB01FC01E851FC4780
:10296000E730F10598F5E25BFF4D0C94851F06E218
:1029700021EE41EE6AE17CE7CD010E94451480E042
:102980000F91089507E225EE45EE6BE17CE7F4CF69
:1029900006E221EE40EE68E17CE7EECF07E225EEAD
:1029A00044EE69E17CE7E8CF06E221EE42EE6CE11D
:1029B0007CE7E2CF07E225EE46EE6DE17CE7DCCF77
:1029C00008E221E045EE6EE17CE7D6CF15968C91CA
:1029D00081111092FF0181E0D3CF90930102809387
:1029E00000020895E0910002F0910102309729F071
:1029F0000190F081E02D0995089580E00895E0911F
:102A00000002F0910102309721F00280F381E02D65
:102A100009950895DC01E0910002F09101023097E0
:102A200039F086E08C930480F581E02DCD01099585
:102A3000089520910201309103012E5F3F4F809154
:102A40000E01811579F080910E0287FF0BC0209155
:102A50000001309101012E5F3F4F9EE180E09150D7
:102A600018F4089596E0FACFF90141919F014115BC
:102A7000B1F38F5FF4CF8115A1F190910E01911503
:102A800021F090910E0297FD0FC02091020130912C
:102A90000301F9013296285F3F4F9191981719F180
:102AA000E217F307D1F71DC0982F96959695969546
:102AB000803FB8F4E0910001F0910101E90FF11DB0
:102AC000228130E0877041E050E0BA0102C0660F19
:102AD000771F8A95E2F7CB012623392381E0232B48
:102AE00019F480E0089581E008959C01FC0132967C
:102AF0008FEF90E04191461751F08F3F19F441114B
:102B000001C0892F9F5F9630A9F78F3F09F4089580
:102B1000280F311D87FD3A95F901628308959C01C4
:102B2000FC013296285F3F4F8191861302C0DF017E
:102B30001E92E217F307C1F70895FC01862F8695D0
:102B400086958695603F60F4E80FF11D677021E07F
:102B500030E001C0220F6A95EAF78281822B8283DE
:102B60000895FC01862F869586958695603F80F4B2
:102B7000E80FF11D677081E090E09C0102C0220F18
:102B8000331F6A95E2F7B9016095828168236283F9
:102B90000895682F80910E01811559F080910E02E1
:102BA00087FF07C080910001909101010E949D154F
:102BB000089580910201909103010E947515089576
:102BC000682F80910E01811559F080910E0287FFC8
:102BD00007C080910001909101010E94B1150895F4
:102BE00080910201909103010E948F1508958091B8
:102BF0000E01811579F080910E0287FF0BC0E091E4
:102C00000001F091010132968EE1DF011D928A955B
:102C1000E9F70895E0910201F0910301329686E010
:102C2000F4CF08950E94111608958F5F80930202D9
:102C30000E941216089583E0809302020E941216E9
:102C400008950E941516089581E0809302020E9463
:102C5000121608950E9424160895089508950E945A
:102C60002E160895089508950E942D160895CF9365
:102C70000E9432160E94CE120E943316C0E08C2FA2
:102C80000E94AC12672B682B692B31F4CF5FC330E5
:102C9000B1F780E0CF91089581E0FCCF85B78068DF
:102CA00085BF85B7806885BF08951F921FB61F92A4
:102CB00011248F939F93AF93BF938091030281114F
:102CC00013C08091280290912902A0912A02B0910C
:102CD0002B024196A11DB11D8093280290932902D9
:102CE000A0932A02B0932B02BF91AF919F918F9135
:102CF0001F901FBE1F90189580913002843031F1D3
:102D00000E9434061092030288E190E020E40FB69E
:102D1000F894A895809360000FBE2093600083B75D
:102D2000817F846083BF83B7816083BF78948895F7
:102D300083B78E7F83BF0FB6F894A895809160000B
:102D4000886180936000109260000FBE08950E9419
:102D500046090E943906089582E084BD93E095BD3E
:102D60009AEF97BD80936E0008952FB7F8948091E5
:102D7000280290912902A0912A02B0912B022FBF24
:102D800008952FB7F89460912802709129028091DC
:102D90002A0290912B022FBF08959C014FB7F894FF
:102DA0008091280290912902A0912A02B0912B02D1
:102DB0004FBF821B930B089578941F921FB61F92EA
:102DC00011248F939F93AF93BF938091280290918A
:102DD0002902A0912A02B0912B020196A11DB11DDA
:102DE0008093280290932902A0932A02B0932B0289
:102DF000BF91AF919F918F911F901FBE1F9018950B
:102E000081E08093E00080E28093D8001092C900B6
:102E10008FE19EE40197F1F700C0000087E090EB9E
:102E2000DC018093390290933A02A0933B02B09365
:102E30003C0288E19CE00FB6F894A895809360006E
:102E40000FBE90936000FFCF88E19CE00FB6F8942E
:102E5000A895809360000FBE90936000FFCFFF9213
:102E60000F931F93CF93DF93182FEB011092BC00A9
:102E700084EA8093BC000E94B516082FF92E809139
:102E8000BC0087FF28C08091B900887F883029F076
:102E90008091B900887F8031A1F51093BB0084E850
:102EA0008093BC000E94B516182F092F8091BC009A
:102EB00087FF1FC02091B900287F80E090E0283173
:102EC00099F081E090E0203411F480E090E0919559
:102ED0008195910909C0802F9F2D0E94CD16C8179A
:102EE000D90768F68EEF9FEFCDB7DEB7E5E00C941B
:102EF000B41F812F902F0E94CD16C817D907B0F6A6
:102F0000F1CF8FEF9FEFF0CF1092B9008CE080935C
:102F1000B80008950F931F93CF93DF93EB01809335
:102F2000BB0084E88093BC000E94B516182F092FBF
:102F30008091BC0087FF11C02091B900287F81E0FB
:102F400090E0283211F480E090E09195819591090C
:102F5000DF91CF911F910F910895CF3FDC0741F38F
:102F6000812F902F0E94CD16C817D90708F78EEF32
:102F70009FEFEECF0F931F93CF93DF93EC0184EC81
:102F80008093BC000E94B516182F092F8091BC00B9
:102F900087FF08C08091BB0090E0DF91CF911F9127
:102FA0000F910895CF3FDC0789F3812F902F0E9466
:102FB000CD16C817D90750F78EEF9FEFEECF0F93BE
:102FC0001F93CF93DF93EC0184E88093BC000E94B1
:102FD000B516182F092F8091BC0087FF08C080917B
:102FE000BB0090E0DF91CF911F910F910895CF3FEB
:102FF000DC0789F3812F902F0E94CD16C817D907BF
:1030000050F78EEF9FEFEECFA0E0B0E0EAE0F8E1FE
:103010000C948F1F682E962E5A01690178010E9428
:10302000B516782E892E0431110530F10F3F1007A7
:1030300031F1C80164E170E00E94711F162F072F63
:10304000612F702F862D0E942F17EC01892BC9F05C
:10305000FFEFEF16FF06A1F3872D982D0E94CD16E6
:10306000E816F90668F784E98093BC00CE01CDB775
:10307000DEB7EEE00C94AB1F11E000E0E1CF15E00D
:10308000FCCFB701892D0E948A17EC018501CA0C7B
:10309000DB1C0C151D0539F3209729F7B701F80142
:1030A00081918F010E948A17EC01F3CFA0E0B0E07C
:1030B000ECE5F8E10C948F1F982E862E6A015901D9
:1030C00078010E94B5163C010431110550F10F3F03
:1030D000100751F1C80164E170E00E94711F162FC2
:1030E000072F612F702F892D0E942F17EC01892B3C
:1030F000E9F0FFEFEF16FF06A1F3C3010E94CD1622
:10310000E816F90670F784E98093BC00CE011C161E
:103110001D0614F480E090E0CDB7DEB7EEE00C942D
:10312000AB1F11E000E0DDCF15E0FCCFB701882D2B
:103130000E948A17EC01892B31F7689490F80E945D
:10314000B516782E892E84E1E816F10450F1EFEFE0
:10315000EE16FE0649F1C70164E170E00E94711F9E
:10316000162F072F612F702F892D0E942F17EC012A
:10317000892BE1F400E010E0F1E0AF1AB1080A1584
:103180001B0500F5D7FDBFCFC7010E94BA17EC01A0
:1031900097FD04C0F601E00FF11F80830F5F1F4F02
:1031A000EECF11E000E0DECF15E0FCCF8FEFE816A8
:1031B000F806C1F2872D982D0E94CD16E816F90663
:1031C00088F6D8CFD7FD9FCFC7010E94DF17EC014B
:1031D00097FD05C0CA0CDB1CF601808394CFCEEFAF
:1031E000DFEF91CF80910C02089508950895282F64
:1031F000CB01BA01309130023430D9F42F702093D2
:10320000E9002FEF3091E80035FD06C035ED3A9525
:10321000F1F700002A95B1F72091E80025FF09C0D9
:1032200040E050E00E94EB1A8091E8008E77809396
:10323000E8000895BC0140E250E082E00E94F718E7
:103240000895CF93DF93D82FC92F48E050E0682F1F
:10325000792F81E00E94F71888E0ED2FFC2FA4E081
:10326000B2E001900D928A95E1F7DF91CF91089538
:1032700080912F02811109C00E94741C0E94D11CF0
:103280008091E20084608093E200089510922F0202
:1032900008950E942416089560912C0281E0611126
:1032A00001C080E00E941B1608959091300281E0D9
:1032B000943009F080E060912C020E94211608955C
:1032C00042E061EC81E00E94F01B42E261EC82E0AE
:1032D0000E94F01B9091300281E0943009F080E070
:1032E00060912C020E941516089580913202893057
:1032F00089F148F4823009F4A0C0833009F45AC03F
:10330000813041F008958A3009F487C08B3009F488
:103310006CC0089580913102813A09F04AC08091D1
:10332000E800877F8093E800809135029091360213
:10333000892B61F060E080E090E070E00E943B1B30
:103340008091E8008B778093E800089568E084E03E
:1033500092E0F3CF80913102813259F580913502AC
:1033600090913602029728F58091E800877F80933C
:10337000E8008091E80082FF18C09091F3008091EE
:10338000F200029731F48091F100813011F0863023
:1033900021F48091F10080930C028091E8008B77FA
:1033A0008093E8000E94241C0895809130028111CE
:1033B000E0CF089580913102813AD9F780913502AA
:1033C00090913602892BA9F78091E800877F80933E
:1033D000E8008091E80080FFFCCF80910E0180938F
:1033E000F1008091E8008E77DBCF8091310281324D
:1033F00001F78091350290913602892BD1F68091A8
:10340000E800877F8093E8000E94241C80913302AB
:1034100080930E010E944609089580913102813205
:1034200041F68091E800877F8093E8000E94241C89
:103430008091340280930D02089580913102813A87
:1034400009F0B7CF8091E800877F8093E8008091F2
:10345000E80080FFFCCF80910D02C1CF84B7877F49
:1034600084BF0FB6F894A89580916000886180931E
:103470006000109260000FBE80E890E00FB6F894F4
:1034800080936100909361000FBE0E942A160895F8
:103490000E94741C0E94D11CE2EEF0E080818460E6
:1034A000808378940E94571F089584E091E00E94E1
:1034B000ED14089580913002853031F4809130020E
:1034C000853019F00E94A71608950E947C160E946C
:1034D0003716811599F380912E02811579F30E9498
:1034E000D51A0E944609EACF08959A014091370201
:1034F000509138020E947D1A0895FC01D9018F2F46
:10350000992783309105C1F068F48130910509F461
:1035100047C0029761F48BE390E024E033E02D9301
:103520003C93089581329105E1F0829749F180E062
:1035300090E020E030E0F3CFCF019927E13059F05F
:103540008230910559F0E0E0F3E0892B81F7849116
:1035500090E09F01E4CFEEEEF2E0F9CFEAEDF2E089
:10356000F6CF89E090E026E133E061157105B9F20C
:1035700089E090E02FE233E06130710581F2D7CF2E
:1035800084E490E02CE833E06115710541F28BE3AF
:1035900090E021E533E06130710509F4C0CFC7CF79
:1035A00082E190E02FE333E0BACF80E189BD82E190
:1035B00089BD09B400FEFDCF8091D8008F7D809336
:1035C000D8008091E00082608093E0008091E0006C
:1035D00081FDFCCF0895AF92BF92CF92DF92EF9220
:1035E000FF920F931F93CF936C018B017A010E947E
:1035F000431CC82F811123C0E114F10439F0F701F5
:1036000080819181081B190BC80ED91EA12CB12CE9
:1036100001151105A1F08091E80085FD21C0809180
:10362000E8008E778093E800E114F10499F0F70147
:10363000808191818A0D9B1D91838083C5E08C2FB1
:10364000CF911F910F91FF90EF90DF90CF90BF909F
:10365000AF9008950E94431C8115E9F2C82FEFCF67
:10366000F60181916F018093F10001501109FFEF84
:10367000AF1ABF0ACDCFFC019B0180913702909118
:1036800038028617970718F0672B61F0C90140E0F0
:10369000009771F441110CC08091E80082FF35C0A1
:1036A00080E008958091E8008E778093E800EECF67
:1036B000209130022115A9F12530A9F12091E800CF
:1036C00023FD2DC02091E80022FDE6CF2091E800E7
:1036D00020FFDECF3091F3002091F200009719F027
:1036E0002830310558F041E02830310509F040E03C
:1036F0002091E8002E772093E800CACF41914093B3
:10370000F10001972F5F3F4FE9CF80913002811583
:1037100041F0853041F08091E80083FFBDCF81E02A
:10372000089582E0089583E00895FC019B01809153
:103730003702909138028617970718F0672B61F0CF
:10374000C90140E0009771F441110CC08091E8007C
:1037500082FF36C080E008958091E8008E778093E4
:10376000E800EECF209130022115B1F12530B1F102
:103770002091E80023FD2EC02091E80022FDE6CF35
:103780002091E80020FFDECF3091F3002091F2007D
:10379000009719F02830310558F041E02830310504
:1037A00009F040E02091E8002E772093E800CACF8E
:1037B00044914093F100319601972F5F3F4FE8CF3E
:1037C00080913002811541F0853041F08091E80010
:1037D00083FFBCCF81E0089582E0089583E00895DF
:1037E000982F973028F08F708093E90081E008953A
:1037F0009093E900242F762F50E0981731F07091C4
:10380000EC002091ED005091F00021FD02C09F5F7F
:10381000E8CF3091EB003E7F3093EB003091ED002C
:103820003D7F3093ED003091EB0031603093EB0041
:103830007093EC002093ED005093F0002091EE0087
:1038400027FDE5CF80E008958091310287FF13C006
:103850008091E80082FF06C08091E8008B7780931A
:10386000E8000895809130028111F2CF089580918F
:1038700030028115D9F38091E80080FFF8CF809164
:10388000E8008E77ECCF2091E4003091E50095E6DA
:10389000A9012091EC00822F817020FF06C0809149
:1038A000E80080FF06C080E008952091E80022FD36
:1038B0001AC080913002811589F0853089F080919D
:1038C000EB0085FD0FC02091E4003091E500421728
:1038D0005307F9F29A95E1F684E0089582E008959D
:1038E00083E0089581E008950E94E31C0E94EB1C90
:1038F000E0EEF0E0808181608083E8EDF0E080819F
:103900008F77808319BCA7EDB0E08C918E7F8C936C
:1039100080818F7E808310922F0208950F931F93D2
:10392000CF93DF930E94E31C0E94EB1CC8EDD0E014
:1039300088818F77888388818068888388818F7D5C
:10394000888319BC1092300210922C0210922E0221
:1039500010922D0200EE10E0F80180818B7F8083B1
:1039600088818160888342E060E080E00E94F01BF3
:10397000E1EEF0E080818E7F8083E2EEF0E08081F6
:1039800081608083808188608083F80180818E7F60
:103990008083888180618883DF91CF911F910F910F
:1039A0000895E8EDF0E080818F7E8083E7EDF0E020
:1039B00080818160808384E082BF81E080932F02D8
:1039C0000E948E1C0895E8EDF0E080818E7F808358
:1039D0001092E20008951092DA001092E10008952A
:1039E0001F920F920FB60F9211242F933F934F9374
:1039F0005F936F937F938F939F93AF93BF93EF9357
:103A0000FF938091E10082FF0BC08091E20082FF72
:103A100007C08091E1008B7F8093E1000E94561FD8
:103A20008091DA0080FF19C08091D80080FF15C016
:103A30008091DA008E7F8093DA008091D90080FF38
:103A400094C080E189BD82E189BD09B400FEFDCF4B
:103A500081E0809330020E9438198091E10080FF5C
:103A600019C08091E20080FF15C08091E2008E7F36
:103A70008093E2008091E20080618093E200809177
:103A8000D80080628093D80019BC85E08093300212
:103A90000E944C198091E10084FF29C08091E200CE
:103AA00084FF25C080E189BD82E189BD09B400FEA3
:103AB000FDCF8091D8008F7D8093D8008091E10068
:103AC0008F7E8093E1008091E2008F7E8093E20000
:103AD0008091E20081608093E20080912C02811548
:103AE00009F449C084E0809330020E945519809106
:103AF000E10083FF29C08091E20083FF25C080910F
:103B0000E100877F8093E10082E080933002109291
:103B10002C028091E1008E7F8093E1008091E20091
:103B20008E7F8093E2008091E20080618093E200CA
:103B300042E060E080E00E94F01B8091F00088602D
:103B40008093F0000E944919FF91EF91BF91AF91CE
:103B50009F918F917F916F915F914F913F912F91A5
:103B60000F900FBE0F901F90189519BC1092300245
:103B70000E94461972CF8091E30087FF02C083E064
:103B8000B2CF81E0B0CF1F920F920FB60F921124E7
:103B9000EF92FF920F931F932F933F934F935F9357
:103BA0006F937F938F939F93AF93BF93CF93EF9335
:103BB000FF9309EE10E0F8018081C091EC008F7056
:103BC000C795CC27C795C82B108280EFE82EF12C23
:103BD000F7018081877F808378940E940E1EF80110
:103BE0001082F701808188608083CF70F801C083E4
:103BF000FF91EF91CF91BF91AF919F918F917F9165
:103C00006F915F914F913F912F911F910F91FF9075
:103C1000EF900F900FBE0F901F901895AAE2B0E0A2
:103C2000E4E1FEE10C94991F81E392E0FC0101962E
:103C30002091F100208322E089339207B9F70E9496
:103C400075198091E80083FF38C08091310290910E
:103C500032029A3090F5E92FF0E0EB5AFF4D0C94C8
:103C6000851F803889F0823841F5809135028F7048
:103C7000873018F58093E9008091EB0085FB882759
:103C800080F91092E90006C080912E02880F909171
:103C90002D02892B9091E800977F9093E800809304
:103CA000F1001092F1008091E8008E7723C081111D
:103CB00016C080913302813011F18091E80083FFBA
:103CC0000AC08091E800877F8093E8008091EB0034
:103CD00080628093EB00AA96E4E00C94B51F8230DA
:103CE00061F780913302811589F01092E90080918B
:103CF000E800877F8093E8000E94241CDECF81E0EB
:103D0000933009F080E080932E02EFCF809135024E
:103D10008F702FEF280F263080F68093E9002091D6
:103D2000EB0020FFE2CF933031F48091EB00806212
:103D30008093EB00DACF9091EB0090619093EB00D1
:103D400021E030E0A90102C0440F551F8A95E2F737
:103D50004093EA001092EA008091EB008860E8CF7F
:103D60008111ABCF109133021F778091E3008078EF
:103D7000812B8093E3008091E800877F8093E800A7
:103D80000E94241C8091E80080FFFCCF8091E3001A
:103D900080688093E30083E0111101C082E080938A
:103DA00030028BCF8058823008F087CF8091330269
:103DB000909134028C3D53E0950799F583E08A8316
:103DC0008AE289834FB7F894DE01139620E03EE043
:103DD00051E2E32FF0E050935700849120FF03C09D
:103DE00082958F703F5F8F708A30C8F0895C90E059
:103DF0008D939D932F5F243161F74FBF8091E80031
:103E0000877F8093E8006AE270E0CE0101960E940D
:103E10003B1B8091E8008B778093E8004ECF805D5C
:103E2000E6CF6091350270913602AE014F5F5F4F71
:103E30000E94751A8C01892B09F43FCF8091E8000C
:103E4000877F8093E800B80189819A810E94951B41
:103E5000E0CF803809F031CF8091E800877F8093F0
:103E6000E80080912C028093F1001DCF811125CFB5
:103E700090913302923008F020CF8091E800877F44
:103E80008093E80090932C020E94241C80912C02C5
:103E9000811531F084E0809330020E9460190DCFCB
:103EA0008091E30087FDF6CF81E0F5CF0895CF93B1
:103EB00080913002811599F08091E900C091EC0069
:103EC0008F70C795CC27C795C82B1092E9008091B9
:103ED000E80083FD0E940E1ECF70C093E900CF91D1
:103EE0000895AA1BBB1B51E107C0AA1FBB1FA61741
:103EF000B70710F0A61BB70B881F991F5A95A9F793
:103F000080959095BC01CD010895EE0FFF1F05909F
:103F1000F491E02D09942F923F924F925F926F920D
:103F20007F928F929F92AF92BF92CF92DF92EF9249
:103F3000FF920F931F93CF93DF93CDB7DEB7CA1BCA
:103F4000DB0B0FB6F894DEBF0FBECDBF09942A88F5
:103F5000398848885F846E847D848C849B84AA849D
:103F6000B984C884DF80EE80FD800C811B81AA812A
:103F7000B981CE0FD11D0FB6F894DEBF0FBECDBFF5
:103F8000ED010895FB01DC0104C08D9101908019C1
:103F900021F441505040C8F7881B990B0895FB014C
:103FA000DC0102C001900D9241505040D8F70895B5
:103FB000F999FECF92BD81BDF89A992780B50895F1
:103FC000A8E1B0E042E050E00C941C20DC01A40F1A
:103FD000B51F4150504048F0CB01840F951F2E91E2
:103FE0000E94F71F41505040D0F70895262FF999AD
:103FF000FECF92BD81BDF89A019700B4021639F048
:104000001FBA20BD0FB6F894FA9AF99A0FBE089518
:104010000396272F0E94F71F0E94F61F252F0E944C
:10402000F71F242F0C94F71F0196272F0E94F71FCC
:104030000C94F61FDC01CB01FC01F999FECF06C000
:10404000F2BDE1BDF89A319600B40D924150504056
:10405000B8F70895F894FFCFC4133514CC13961312
:104060009A13D0139E13D413E013AA132E14AE1375
:10407000E413B213E8130D14B613EC131414BC13A9
:10408000F213FA13A213D813A613DC13C013F613FA
:1040900004141D142C149013C8133C14C814CE140B
:1040A000B714C214D414DA14E014311E571E5D1E66
:0E40B000571E5D1EB01ED21E5D1E291F361F3C
:1040BE00B801D801F21821191A19F618F5180100CD
:00000001FF
